:030000000209AC46
:0C09AC00787FE4F6D8FD75811F02096019
:10099700000D14364C6484B4D2E9FFE9D2B4846400
:0509A7004C36140D00A8
:030003000208F6FA
:1008F600C0E0C0D075D000C006C007051DD3E51DF9
:100906006480948340047F0180027F00C3E51D64F8
:1009160080948050047E0180027E00EE4F60037555
:0B0926001D00D007D006D0D0D0E0327A
:10096000D2AFD2A8D288E4F590E51D700512097CBB
:0C09700080F7E51DB401F212093180EDA2
:1009310078087C007D007BFF7A0979977E007F151E
:100941001208D0E4F51EF51F7408251FF8E6F5908E
:0E095100051FE51F7002051E6414451E70EAA6
:01095F002275
:10097C00E4F590F51EF51F7590FF051FE51F70023D
:0B098C00051EB420F2E51EB44EED2263
:10080000E709F608DFFA8046E709F208DFFA803EDA
:1008100088828C83E709F0A3DFFA8032E309F608C7
:10082000DFFA8078E309F208DFFA807088828C832F
:10083000E309F0A3DFFA806489828A83E0A3F608E3
:10084000DFFA805889828A83E0A3F208DFFA804CBD
:1008500080D280FA80C680D4806980F28033801094
:1008600080A680EA809A80A880DA80E280CA8033FD
:1008700089828A83ECFAE493A3C8C582C8CCC58375
:10088000CCF0A3C8C582C8CCC583CCDFE9DEE78045
:100890000D89828A83E493A3F608DFF9ECFAA9F0C4
:1008A000EDFB2289828A83ECFAE0A3C8C582C8CC1A
:1008B000C583CCF0A3C8C582C8CCC583CCDFEADE33
:1008C000E880DB89828A83E493A3F208DFF980CC95
:1008D00088F0EF60010E4E60C388F0ED2402B4048E
:1008E0000050B9F582EB2402B4040050AF23234535
:0608F00082239008507302
:00000001FF
