:03089100D28C22E4
:03000B0002088662
:07088600758C00758A003239
:04088D007589062241
:10084600E4F510F511C3E5119FEE6480F8E5106438
:100856008098501FE4F512F5130513E51370020591
:1008660012B4E8F5E512B403F00511E51170D605EA
:040876001080D222FA
:10080000E4F590E4F50CF50DE4F50EF50FAF0DEF02
:10081000C454F0450FF5907F647E00120846050F22
:10082000E50F7002050EC3940AE50E6480948040C3
:10083000DC050DE50D7002050CC3940AE50C64801F
:06084000948040C480BD5D
:0300000002087A79
:0C087A00787FE4F6D8FD758113020800B9
:00000001FF
