:030000000208A44F
:0C08A400787FE4F6D8FD7581140208EBA3
:0C0A220032315057435345323035390013
:050A42000312FF0A226F
:10099500E4F580F5A01209ECAB12AA13A91412080C
:1009A5000060130514E5147002051314F91208000C
:1009B500FF120A3880E21209C78E108F1112093012
:0209C50080F4BC
:1009EC007F38120A2E7F0E120A2E7F01120A2E7FDA
:0E09FC0006120A2E7F0C120A2E7F80020A2E8F
:0A0A2E008FA0C2B0120A0AC2B12262
:0A0A38008FA0D2B0120A0AC2B12248
:060A0A00D2B17F107E272F
:100A1000E4FDFCC3ED9FEC9E50070DBD00010C8072
:010A2000F2E3
:010A210022B2
:1009C700D2B3C2B47F0A7E00120A10D2B420B2FD9D
:1009D700C2B3AF90750A008F0B7F0A7E00120A1010
:0509E700AE0AAF0B2277
:100930007FC0120A2EAE10AF117C007D6412081920
:100940008E088F09AE10AF117C007D641208198CDF
:10095000108D11E50945086008E5092430FF120AE9
:1009600038AE10AF117C007D0A1208198E0E8F0F61
:10097000AE10AF117C007D0A1208198C108D11E5A4
:100980000F2430FF120A3885100C85110DE50D2457
:0509900030FF020A38EF
:1008B000020995E493A3F8E493A34003F68001F2C0
:1008C00008DFF48029E493A3F85407240CC8C33349
:1008D000C4540F4420C8834004F456800146F6DF18
:1008E000E4800B0102040810204080900A42E47E5C
:1008F000019360BCA3FF543F30E509541FFEE4930D
:10090000A360010ECF54C025E060A840B8E493A3D3
:10091000FAE493A3F8E493A3C8C582C8CAC583CAFE
:10092000F0A3C8C582C8CAC583CADFE9DEE780BEB6
:010A470000AE
:10080000BB010689828A83E0225002E722BBFE02F6
:09081000E32289828A83E4932229
:10081900C2D5EC30E709B2D5E4C39DFDE49CFCEEFA
:1008290030E715B2D5E4C39FFFE49EFE12084FC31B
:10083900E49DFDE49CFC800312084F30D507C3E416
:060849009FFFE49EFE2269
:10084F00BC000BBE0029EF8DF084FFADF022E4CC8D
:10085F00F875F008EF2FFFEE33FEEC33FCEE9DEC56
:10086F00984005FCEE9DFE0FD5F0E9E4CEFD22ED9C
:10087F00F8F5F0EE8420D21CFEADF075F008EF2FE6
:10088F00FFED33FD4007985006D5F0F222C398FDD7
:05089F000FD5F0EA2274
:00000001FF
