:03000000020933BF
:0C093300787FE4F6D8FD7581070208000B
:10080000E4F590C2A0D2A3D2A2D2A120A40E30A51A
:100810000B30A608D2907F01FE1208D230A40F2020
:10082000A50C30A609D2917F027E001208D230A416
:100830000F30A50C20A609D2927F037E001208D2A9
:10084000C2A1D2A3D2A2D2A020A40F30A50C30A660
:1008500009D2937F047E001208D230A40F20A50C89
:1008600030A609D2947F057E001208D230A40F3042
:10087000A50C20A609D2957F067E001208D2C2A23E
:10088000D2A3D2A1D2A020A40F30A50C30A609D2A9
:10089000967F077E001208D230A40F20A50C30A648
:1008A00009D2977F087E001208D230A40D30A50A25
:1008B00020A6077F097E001208D2C2A3D2A2D2A12D
:1008C000D2A030A40C20A50930A606E4FFFE120831
:0208D000D22232
:1008D200EF4E700475B04022EF64014E700475B0A3
:1008E2007922EF64024E700475B02422EF64034E45
:1008F200700475B03022EF64044E700475B0192292
:10090200EF64054E700475B01222EF64064E700457
:1009120075B00222EF64074E700475B07822EF645E
:10092200084E7003F5B022EF64094E700375B018DB
:0109320022A2
:00000001FF
