:10084300E4F50CF50DC3E50D9FEE6480F8E50C644B
:100853008098501FE4F50EF50F050FE50F700205A4
:100863000EB4E8F5E50EB403F0050DE50D70D605FD
:040873000C80D22201
:10080000E4F508F509E4F50AF50BAF09EFC454F077
:10081000450BF5907F647E00120843050BE50B70D5
:1008200002050AC3940AE50A6480948040DC050945
:10083000E50970020508C3940AE5086480948040C5
:03084000C480BDB4
:030000000208777C
:0C087700787FE4F6D8FD75810F020800C0
:00000001FF
