:0300000002091BD7
:0C091B00787FE4F6D8FD75810702080023
:1008000030A2047F0180027F0030A1047E018002BB
:100810007E00EE5FFF30A3047E0180027E00EE5F6B
:10082000600575900180D930A2047F0180027F00AD
:1008300030A1047E0180027E00EE5FFF20A3047ED3
:100840000180027E00EE5F600575900280B220A2FA
:10085000047F0180027F0030A1047E0180027E00BF
:10086000EE5FFF30A3047E0180027E00EE5F600534
:10087000759004808B20A2047F0180027F0030A14C
:10088000047E0180027E00EE5FFF20A3047E0180D3
:10089000027E00EE5F600675900802080030A20438
:1008A0007F0180027F0020A1047E0180027E00EE95
:1008B0005FFF30A3047E0180027E00EE5F6006755C
:1008C000901002080030A2047F0180027F0020A166
:1008D000047E0180027E00EE5FFF20A3047E018083
:1008E000027E00EE5F600675902002080020A204E0
:1008F0007F0180027F0020A1047E0180027E00EE45
:100900005FFF30A3047E0180027E00EE5F6006750B
:0B091000904002080075908002080073
:00000001FF
