:03000000020800F3
:0C080000787FE4F6D8FD758108020847F7
:03093600010800B5
:10088C00C292D2AFD2A8D288E5087012120916C251
:10089C00927FC87EAF12091C7FC87EAF801EE50810
:1008AC00B4010B120916C2927F407E9C800EE508A3
:1008BC00B4020E120916C2927F987E3A12091C805D
:0F08CC00C7120916C2927FC47E0912091C80B997
:030003000208DB15
:1008DB00C0E0C0D075D000C006C0070508D3E5083E
:1008EB006480948340047F0180027F00C3E5086429
:1008FB0080948050047E0180027E00EE4F60037571
:0B090B000800D007D006D0D0D0E032AA
:06091600D2927F107E2743
:10091C00758901EFF4F58AEEF4F58CD28C308DFDEF
:0A092C00C28CC28DE4F58AF58C221E
:10080C0002088CE493A3F8E493A34003F68001F26E
:10081C0008DFF48029E493A3F85407240CC8C333ED
:10082C00C4540F4420C8834004F456800146F6DFBC
:10083C00E4800B0102040810204080900936E47E0D
:10084C00019360BCA3FF543F30E509541FFEE493B1
:10085C00A360010ECF54C025E060A840B8E493A378
:10086C00FAE493A3F8E493A3C8C582C8CAC583CAA3
:10087C00F0A3C8C582C8CAC583CADFE9DEE780BE5B
:0109390000BD
:00000001FF
