:03000000020A02EF
:0C0A0200787FE4F6D8FD758128020A49CF
:100BE4002020202020202020202020202020202001
:0D0BF40000496E76616C696400203D2000B0
:040C40000222002864
:100B1100E4F5A0120BC6E4F520F5211208008F1BA5
:100B2100E51B6443601D120C3174122521F8A61BCC
:100B31000521E52170020520C39403E5206480941A
:100B41008040D87BFF7A0B79E4120BA1E51B64434B
:100B5100601DAF12120C198E0E8F0FAF14120C19EB
:100B61008E108F1185131F120A8E120B7180A7220E
:100BC6007F38120C277F0E120C277F01120C277F0D
:0E0BD60006120C277F0C120C277F80020C27C2
:0A0C27008FA0C2B0120C01C2B1226E
:0A0C31008FA0D2B0120C01C2B12254
:060C0100D2B17F107E2736
:100C0700E4FDFCC3ED9FEC9E50070DBD00010C8079
:010C1700F2EA
:010C180022B9
:10080000C290D293D292D29120940F30950C309610
:1008100009309706120C037F372230940F20950C75
:10082000309609309706120C037F382230940F302F
:10083000950C209609309706120C037F39223094CC
:100840000F30950C309609209706120C037F2F224B
:10085000C291D293D292D29020940F30950C3096C0
:1008600009309706120C037F342230940F20950C28
:10087000309609309706120C037F352230940F30E2
:10088000950C209609309706120C037F362230947F
:100890000F30950C309609209706120C037F7822B2
:1008A000C292D293D291D29020940F30950C309670
:1008B00009309706120C037F312230940F20950CDB
:1008C000309609309706120C037F322230940F3095
:1008D000950C209609309706120C037F3322309432
:1008E0000F30950C309609209706120C037F2D22AD
:1008F000C293D292D291D29020940F30950C309620
:1009000009309706120C037F432230940F20950C78
:10091000309609309706120C037F302230940F3046
:10092000950C209609309706120C037F3D222094E7
:100930000302080020950302080020960302080025
:0C094000309703020800120C037F2B22EA
:050C3B00EF2430FF2250
:0E0C1900EF3395E0FEEF24D0FFEE34FFFE2215
:100BA1008B268A278928AB26AA27A92812094C60F7
:100BB100130528E5287002052714F912094CFF12C4
:050BC1000C3180E2226E
:100A8E00E51F24D3601A24FE603224B76021244D62
:100A9E00703BE50F2511F525E50E3510F524803E4A
:100AAE00C3E50F9511F525E50E9510F524802FACB5
:100ABE0010AD11AE0EAF0F120965800BAC10AD115B
:100ACE00AE0EAF0F1209778E248F2580117BFF7A21
:100ADE000B79F5120BA17F01120C27120B11AE240C
:100AEE00AF257C007D0A1209778E088F09AE24AFE0
:100AFE00257C007D0A1209778C248D2585240A8594
:030B0E00250B2292
:100B71007FC0120C277B007A007912120BA17BFF38
:100B81007A0B79FD120BA1AF09AE08120C3B120CC6
:100B910031AF0BAE0A120C3B120C317F80020C27D5
:100A0E00020B11E493A3F8E493A34003F68001F2E2
:100A1E0008DFF48029E493A3F85407240CC8C333E9
:100A2E00C4540F4420C8834004F456800146F6DFB8
:100A3E00E4800B0102040810204080900C40E47EFC
:100A4E00019360BCA3FF543F30E509541FFEE493AD
:100A5E00A360010ECF54C025E060A840B8E493A374
:100A6E00FAE493A3F8E493A3C8C582C8CAC583CA9F
:100A7E00F0A3C8C582C8CAC583CADFE9DEE780BE57
:010C440000AF
:10094C00BB010689828A83E0225002E722BBFE02A9
:09095C00E32289828A83E49322DC
:10096500EF8DF0A4A8F0CF8CF0A428CE8DF0A42EA6
:02097500FE2260
:10097700C2D5EC30E709B2D5E4C39DFDE49CFCEE9B
:1009870030E715B2D5E4C39FFFE49EFE1209ADC35D
:10099700E49DFDE49CFC80031209AD30D507C3E458
:0609A7009FFFE49EFE220A
:1009AD00BC000BBE0029EF8DF084FFADF022E4CC2E
:1009BD00F875F008EF2FFFEE33FEEC33FCEE9DECF7
:1009CD00984005FCEE9DFE0FD5F0E9E4CEFD22ED3D
:1009DD00F8F5F0EE8420D21CFEADF075F008EF2F87
:1009ED00FFED33FD4007985006D5F0F222C398FD78
:0509FD000FD5F0EA2215
:00000001FF
